{
    "contractName": "supplyChain",
    "abi": [
        {
            "anonymous": false,
            "inputs": [
                {
                    "indexed": false,
                    "internalType": "uint32",
                    "name": "productId",
                    "type": "uint32"
                }
            ],
            "name": "TransferOwnership",
            "type": "event"
        },
        {
            "inputs": [
                {
                    "internalType": "string",
                    "name": "_name",
                    "type": "string"
                },
                {
                    "internalType": "string",
                    "name": "_pass",
                    "type": "string"
                },
                {
                    "internalType": "address",
                    "name": "_pAdd",
                    "type": "address"
                },
                {
                    "internalType": "string",
                    "name": "_pType",
                    "type": "string"
                }
            ],
            "name": "addParticipant",
            "outputs": [
                {
                    "internalType": "uint32",
                    "name": "",
                    "type": "uint32"
                }
            ],
            "stateMutability": "nonpayable",
            "type": "function"
        },
        {
            "inputs": [
                {
                    "internalType": "uint32",
                    "name": "_ownerId",
                    "type": "uint32"
                },
                {
                    "internalType": "string",
                    "name": "_modelNumber",
                    "type": "string"
                },
                {
                    "internalType": "string",
                    "name": "_partNumber",
                    "type": "string"
                },
                {
                    "internalType": "string",
                    "name": "_serialNumber",
                    "type": "string"
                },
                {
                    "internalType": "uint32",
                    "name": "_productCost",
                    "type": "uint32"
                }
            ],
            "name": "addProduct",
            "outputs": [
                {
                    "internalType": "uint32",
                    "name": "",
                    "type": "uint32"
                }
            ],
            "stateMutability": "nonpayable",
            "type": "function"
        },
        {
            "inputs": [
                {
                    "internalType": "uint32",
                    "name": "_uid",
                    "type": "uint32"
                },
                {
                    "internalType": "string",
                    "name": "_uname",
                    "type": "string"
                },
                {
                    "internalType": "string",
                    "name": "_pass",
                    "type": "string"
                },
                {
                    "internalType": "string",
                    "name": "_utype",
                    "type": "string"
                }
            ],
            "name": "authenticateParticipant",
            "outputs": [
                {
                    "internalType": "bool",
                    "name": "",
                    "type": "bool"
                }
            ],
            "stateMutability": "view",
            "type": "function"
        },
        {
            "inputs": [
                {
                    "internalType": "uint32",
                    "name": "_regId",
                    "type": "uint32"
                }
            ],
            "name": "getOwnership",
            "outputs": [
                {
                    "internalType": "uint32",
                    "name": "",
                    "type": "uint32"
                },
                {
                    "internalType": "uint32",
                    "name": "",
                    "type": "uint32"
                },
                {
                    "internalType": "address",
                    "name": "",
                    "type": "address"
                },
                {
                    "internalType": "uint32",
                    "name": "",
                    "type": "uint32"
                }
            ],
            "stateMutability": "view",
            "type": "function"
        },
        {
            "inputs": [
                {
                    "internalType": "uint32",
                    "name": "_participant_id",
                    "type": "uint32"
                }
            ],
            "name": "getParticipant",
            "outputs": [
                {
                    "internalType": "string",
                    "name": "",
                    "type": "string"
                },
                {
                    "internalType": "address",
                    "name": "",
                    "type": "address"
                },
                {
                    "internalType": "string",
                    "name": "",
                    "type": "string"
                }
            ],
            "stateMutability": "view",
            "type": "function"
        },
        {
            "inputs": [
                {
                    "internalType": "uint32",
                    "name": "_productId",
                    "type": "uint32"
                }
            ],
            "name": "getProduct",
            "outputs": [
                {
                    "internalType": "string",
                    "name": "",
                    "type": "string"
                },
                {
                    "internalType": "string",
                    "name": "",
                    "type": "string"
                },
                {
                    "internalType": "string",
                    "name": "",
                    "type": "string"
                },
                {
                    "internalType": "uint32",
                    "name": "",
                    "type": "uint32"
                },
                {
                    "internalType": "address",
                    "name": "",
                    "type": "address"
                },
                {
                    "internalType": "uint32",
                    "name": "",
                    "type": "uint32"
                }
            ],
            "stateMutability": "view",
            "type": "function"
        },
        {
            "inputs": [
                {
                    "internalType": "uint32",
                    "name": "_prodId",
                    "type": "uint32"
                }
            ],
            "name": "getProvenance",
            "outputs": [
                {
                    "internalType": "uint32[]",
                    "name": "",
                    "type": "uint32[]"
                }
            ],
            "stateMutability": "view",
            "type": "function"
        },
        {
            "inputs": [
                {
                    "internalType": "uint32",
                    "name": "_user1Id",
                    "type": "uint32"
                },
                {
                    "internalType": "uint32",
                    "name": "_user2Id",
                    "type": "uint32"
                },
                {
                    "internalType": "uint32",
                    "name": "_prodId",
                    "type": "uint32"
                }
            ],
            "name": "newOwner",
            "outputs": [
                {
                    "internalType": "bool",
                    "name": "",
                    "type": "bool"
                }
            ],
            "stateMutability": "nonpayable",
            "type": "function"
        },
        {
            "inputs": [],
            "name": "owner_id",
            "outputs": [
                {
                    "internalType": "uint32",
                    "name": "",
                    "type": "uint32"
                }
            ],
            "stateMutability": "view",
            "type": "function"
        },
        {
            "inputs": [
                {
                    "internalType": "uint32",
                    "name": "",
                    "type": "uint32"
                }
            ],
            "name": "ownerships",
            "outputs": [
                {
                    "internalType": "uint32",
                    "name": "productId",
                    "type": "uint32"
                },
                {
                    "internalType": "uint32",
                    "name": "ownerId",
                    "type": "uint32"
                },
                {
                    "internalType": "uint32",
                    "name": "trxTimeStamp",
                    "type": "uint32"
                },
                {
                    "internalType": "address",
                    "name": "productOwner",
                    "type": "address"
                }
            ],
            "stateMutability": "view",
            "type": "function"
        },
        {
            "inputs": [],
            "name": "participant_id",
            "outputs": [
                {
                    "internalType": "uint32",
                    "name": "",
                    "type": "uint32"
                }
            ],
            "stateMutability": "view",
            "type": "function"
        },
        {
            "inputs": [
                {
                    "internalType": "uint32",
                    "name": "",
                    "type": "uint32"
                }
            ],
            "name": "participants",
            "outputs": [
                {
                    "internalType": "string",
                    "name": "userName",
                    "type": "string"
                },
                {
                    "internalType": "string",
                    "name": "password",
                    "type": "string"
                },
                {
                    "internalType": "string",
                    "name": "participantType",
                    "type": "string"
                },
                {
                    "internalType": "address",
                    "name": "participantAddress",
                    "type": "address"
                }
            ],
            "stateMutability": "view",
            "type": "function"
        },
        {
            "inputs": [
                {
                    "internalType": "uint32",
                    "name": "",
                    "type": "uint32"
                },
                {
                    "internalType": "uint256",
                    "name": "",
                    "type": "uint256"
                }
            ],
            "name": "productTrack",
            "outputs": [
                {
                    "internalType": "uint32",
                    "name": "",
                    "type": "uint32"
                }
            ],
            "stateMutability": "view",
            "type": "function"
        },
        {
            "inputs": [],
            "name": "product_id",
            "outputs": [
                {
                    "internalType": "uint32",
                    "name": "",
                    "type": "uint32"
                }
            ],
            "stateMutability": "view",
            "type": "function"
        },
        {
            "inputs": [
                {
                    "internalType": "uint32",
                    "name": "",
                    "type": "uint32"
                }
            ],
            "name": "products",
            "outputs": [
                {
                    "internalType": "string",
                    "name": "modelNumber",
                    "type": "string"
                },
                {
                    "internalType": "string",
                    "name": "partNumber",
                    "type": "string"
                },
                {
                    "internalType": "string",
                    "name": "serialNumber",
                    "type": "string"
                },
                {
                    "internalType": "address",
                    "name": "productOwner",
                    "type": "address"
                },
                {
                    "internalType": "uint32",
                    "name": "cost",
                    "type": "uint32"
                },
                {
                    "internalType": "uint32",
                    "name": "mfgTimeStamp",
                    "type": "uint32"
                }
            ],
            "stateMutability": "view",
            "type": "function"
        }
    ],
    "bytecode": "6080604052600080546001600160601b031916905534801561002057600080fd5b50612367806100306000396000f3fe608060405234801561001057600080fd5b50600436106100f55760003560e01c80638f5ebf7111610097578063df6d23f111610066578063df6d23f1146102b9578063eab0a4791461036a578063ebf43a7e1461037a578063fc2da9101461038d57600080fd5b80638f5ebf7114610238578063a638ac491461024f578063bf712fd614610274578063c85695651461029957600080fd5b806350632104116100d3578063506321041461016c578063721b57431461017f5780637d0a9ac91461019257806381e15610146101b557600080fd5b80631a074802146100fa5780632e9d5284146101275780633b26a65d1461014a575b600080fd5b61010d610108366004611cdd565b6103a5565b60405163ffffffff90911681526020015b60405180910390f35b61013a610135366004611d07565b6103ee565b604051901515815260200161011e565b61015d610158366004611d4a565b611027565b60405161011e93929190611dc8565b61010d61017a366004611ea9565b61117e565b61013a61018d366004611f53565b6113aa565b6101a56101a0366004611d4a565b6114f9565b60405161011e9493929190611fec565b6102026101c3366004611d4a565b60036020526000908152604090205463ffffffff808216916401000000008104821691600160401b82041690600160601b90046001600160a01b031684565b6040805163ffffffff9586168152938516602085015291909316908201526001600160a01b03909116606082015260800161011e565b60005461010d90600160401b900463ffffffff1681565b61026261025d366004611d4a565b6116c2565b60405161011e9695949392919061203f565b610287610282366004611d4a565b6118d0565b60405161011e969594939291906120aa565b6102ac6102a7366004611d4a565b611ab2565b60405161011e9190612112565b6103316102c7366004611d4a565b63ffffffff8082166000908152600360209081526040918290208251608081018452905480851680835264010000000082048616938301849052600160401b82049095169382018490526001600160a01b03600160601b9091041660609091018190529093509193565b6040805163ffffffff958616815293851660208501526001600160a01b039092169183019190915291909116606082015260800161011e565b60005461010d9063ffffffff1681565b61010d61038836600461215c565b611b47565b60005461010d90640100000000900463ffffffff1681565b600460205281600052604060002081815481106103c157600080fd5b9060005260206000209060089182820401919006600402915091509054906101000a900463ffffffff1681565b63ffffffff811660009081526001602052604081206003015482906001600160a01b0316331461043e5760405162461bcd60e51b8152602060048201526000602482015260440160405180910390fd5b63ffffffff851660009081526002602052604080822081516080810190925280548290829061046c906121ec565b80601f0160208091040260200160405190810160405280929190818152602001828054610498906121ec565b80156104e55780601f106104ba576101008083540402835291602001916104e5565b820191906000526020600020905b8154815290600101906020018083116104c857829003601f168201915b505050505081526020016001820180546104fe906121ec565b80601f016020809104026020016040519081016040528092919081815260200182805461052a906121ec565b80156105775780601f1061054c57610100808354040283529160200191610577565b820191906000526020600020905b81548152906001019060200180831161055a57829003601f168201915b50505050508152602001600282018054610590906121ec565b80601f01602080910402602001604051908101604052809291908181526020018280546105bc906121ec565b80156106095780601f106105de57610100808354040283529160200191610609565b820191906000526020600020905b8154815290600101906020018083116105ec57829003601f168201915b5050509183525050600391909101546001600160a01b031660209182015263ffffffff8716600090815260029091526040808220815160808101909252805493945091929091908290829061065d906121ec565b80601f0160208091040260200160405190810160405280929190818152602001828054610689906121ec565b80156106d65780601f106106ab576101008083540402835291602001916106d6565b820191906000526020600020905b8154815290600101906020018083116106b957829003601f168201915b505050505081526020016001820180546106ef906121ec565b80601f016020809104026020016040519081016040528092919081815260200182805461071b906121ec565b80156107685780601f1061073d57610100808354040283529160200191610768565b820191906000526020600020905b81548152906001019060200180831161074b57829003601f168201915b50505050508152602001600282018054610781906121ec565b80601f01602080910402602001604051908101604052809291908181526020018280546107ad906121ec565b80156107fa5780601f106107cf576101008083540402835291602001916107fa565b820191906000526020600020905b8154815290600101906020018083116107dd57829003601f168201915b5050509183525050600391909101546001600160a01b03166020909101526000805491925090600160401b900463ffffffff1681600861083983612227565b91906101000a81548163ffffffff021916908363ffffffff16021790555090507fcec9b8e63c868f2f7f30368f1583e7aa39ae80e163d57a859fa5a90244b28ac1836040015160405160200161088f9190612259565b604051602081830303815290604052805190602001201480156108e9575060008051602061231283398151915282604001516040516020016108d19190612259565b60405160208183030381529060405280519060200120145b15610b015785600360008363ffffffff1663ffffffff16815260200190815260200160002060000160006101000a81548163ffffffff021916908363ffffffff1602179055508160600151600360008363ffffffff1663ffffffff168152602001908152602001600020600001600c6101000a8154816001600160a01b0302191690836001600160a01b0316021790555086600360008363ffffffff1663ffffffff16815260200190815260200160002060000160046101000a81548163ffffffff021916908363ffffffff16021790555042600360008363ffffffff1663ffffffff16815260200190815260200160002060000160086101000a81548163ffffffff021916908363ffffffff1602179055508160600151600160008863ffffffff1663ffffffff16815260200190815260200160002060030160006101000a8154816001600160a01b0302191690836001600160a01b03160217905550600460008763ffffffff1663ffffffff1681526020019081526020016000208190806001815401808255809150506001900390600052602060002090600891828204019190066004029091909190916101000a81548163ffffffff021916908363ffffffff1602179055507fa5470ac012c6e9dc500e62b1d3de0de58db49b3ab7cfebbfb126d9abd854199b86604051610aed919063ffffffff91909116815260200190565b60405180910390a16001945050505061101f565b6000805160206123128339815191528360400151604051602001610b259190612259565b60405160208183030381529060405280519060200120148015610b7f57506000805160206123128339815191528260400151604051602001610b679190612259565b60405160208183030381529060405280519060200120145b15610d835785600360008363ffffffff1663ffffffff16815260200190815260200160002060000160006101000a81548163ffffffff021916908363ffffffff1602179055508160600151600360008363ffffffff1663ffffffff168152602001908152602001600020600001600c6101000a8154816001600160a01b0302191690836001600160a01b0316021790555086600360008363ffffffff1663ffffffff16815260200190815260200160002060000160046101000a81548163ffffffff021916908363ffffffff16021790555042600360008363ffffffff1663ffffffff16815260200190815260200160002060000160086101000a81548163ffffffff021916908363ffffffff1602179055508160600151600160008863ffffffff1663ffffffff16815260200190815260200160002060030160006101000a8154816001600160a01b0302191690836001600160a01b03160217905550600460008763ffffffff1663ffffffff1681526020019081526020016000208190806001815401808255809150506001900390600052602060002090600891828204019190066004029091909190916101000a81548163ffffffff021916908363ffffffff1602179055507fa5470ac012c6e9dc500e62b1d3de0de58db49b3ab7cfebbfb126d9abd854199b86604051610aed919063ffffffff91909116815260200190565b6000805160206123128339815191528360400151604051602001610da79190612259565b60405160208183030381529060405280519060200120148015610e1357507fc0878b4b16a78e8085cba0ca02fc0924f1492924058d153153a3f286e0fd70ff8260400151604051602001610dfb9190612259565b60405160208183030381529060405280519060200120145b156110175785600360008363ffffffff1663ffffffff16815260200190815260200160002060000160006101000a81548163ffffffff021916908363ffffffff1602179055508160600151600360008363ffffffff1663ffffffff168152602001908152602001600020600001600c6101000a8154816001600160a01b0302191690836001600160a01b0316021790555086600360008363ffffffff1663ffffffff16815260200190815260200160002060000160046101000a81548163ffffffff021916908363ffffffff16021790555042600360008363ffffffff1663ffffffff16815260200190815260200160002060000160086101000a81548163ffffffff021916908363ffffffff1602179055508160600151600160008863ffffffff1663ffffffff16815260200190815260200160002060030160006101000a8154816001600160a01b0302191690836001600160a01b03160217905550600460008763ffffffff1663ffffffff1681526020019081526020016000208190806001815401808255809150506001900390600052602060002090600891828204019190066004029091909190916101000a81548163ffffffff021916908363ffffffff1602179055507fa5470ac012c6e9dc500e62b1d3de0de58db49b3ab7cfebbfb126d9abd854199b86604051610aed919063ffffffff91909116815260200190565b600094505050505b509392505050565b63ffffffff81166000908152600260208190526040822060038101548154606094938593926001600160a01b031691908301908390611065906121ec565b80601f0160208091040260200160405190810160405280929190818152602001828054611091906121ec565b80156110de5780601f106110b3576101008083540402835291602001916110de565b820191906000526020600020905b8154815290600101906020018083116110c157829003601f168201915b505050505092508080546110f1906121ec565b80601f016020809104026020016040519081016040528092919081815260200182805461111d906121ec565b801561116a5780601f1061113f5761010080835404028352916020019161116a565b820191906000526020600020905b81548152906001019060200180831161114d57829003601f168201915b505050505090509250925092509193909250565b63ffffffff8516600090815260026020818152604080842090517fcec9b8e63c868f2f7f30368f1583e7aa39ae80e163d57a859fa5a90244b28ac1936111c79392019101612275565b60405160208183030381529060405280519060200120141561139d576000805463ffffffff1681806111f883612227565b82546101009290920a63ffffffff81810219909316918316021790915581166000908152600160209081526040909120885192935061123b929091890190611c2b565b5063ffffffff81166000908152600160208181526040909220875161126893919092019190880190611c2b565b5063ffffffff81166000908152600160209081526040909120855161129592600290920191870190611c2b565b5082600160008363ffffffff1663ffffffff16815260200190815260200160002060030160146101000a81548163ffffffff021916908363ffffffff160217905550600260008863ffffffff1663ffffffff16815260200190815260200160002060030160009054906101000a90046001600160a01b0316600160008363ffffffff1663ffffffff16815260200190815260200160002060030160006101000a8154816001600160a01b0302191690836001600160a01b0316021790555042600160008363ffffffff1663ffffffff16815260200190815260200160002060030160186101000a81548163ffffffff021916908363ffffffff160217905550809150506113a1565b5060005b95945050505050565b6000816040516020016113bd9190612259565b60408051601f19818403018152828252805160209182012063ffffffff89166000908152600280845293902090936113fa93919091019101612275565b6040516020818303038152906040528051906020012014156114ed57836040516020016114279190612259565b60408051601f19818403018152828252805160209182012063ffffffff8916600090815260028352929092209192611460929101612275565b6040516020818303038152906040528051906020012014156114ed578260405160200161148d9190612259565b60408051601f19818403018152828252805160209182012063ffffffff89166000908152600283529290922091926114c9926001019101612275565b6040516020818303038152906040528051906020012014156114ed575060016114f1565b5060005b949350505050565b600260205260009081526040902080548190611514906121ec565b80601f0160208091040260200160405190810160405280929190818152602001828054611540906121ec565b801561158d5780601f106115625761010080835404028352916020019161158d565b820191906000526020600020905b81548152906001019060200180831161157057829003601f168201915b5050505050908060010180546115a2906121ec565b80601f01602080910402602001604051908101604052809291908181526020018280546115ce906121ec565b801561161b5780601f106115f05761010080835404028352916020019161161b565b820191906000526020600020905b8154815290600101906020018083116115fe57829003601f168201915b505050505090806002018054611630906121ec565b80601f016020809104026020016040519081016040528092919081815260200182805461165c906121ec565b80156116a95780601f1061167e576101008083540402835291602001916116a9565b820191906000526020600020905b81548152906001019060200180831161168c57829003601f168201915b505050600390930154919250506001600160a01b031684565b63ffffffff8082166000908152600160208190526040822060038101548154606095869586959094859485949193928401926002850192600160a01b83048216926001600160a01b03811692600160c01b90910416908690611723906121ec565b80601f016020809104026020016040519081016040528092919081815260200182805461174f906121ec565b801561179c5780601f106117715761010080835404028352916020019161179c565b820191906000526020600020905b81548152906001019060200180831161177f57829003601f168201915b505050505095508480546117af906121ec565b80601f01602080910402602001604051908101604052809291908181526020018280546117db906121ec565b80156118285780601f106117fd57610100808354040283529160200191611828565b820191906000526020600020905b81548152906001019060200180831161180b57829003601f168201915b5050505050945083805461183b906121ec565b80601f0160208091040260200160405190810160405280929190818152602001828054611867906121ec565b80156118b45780601f10611889576101008083540402835291602001916118b4565b820191906000526020600020905b81548152906001019060200180831161189757829003601f168201915b5050505050935095509550955095509550955091939550919395565b6001602052600090815260409020805481906118eb906121ec565b80601f0160208091040260200160405190810160405280929190818152602001828054611917906121ec565b80156119645780601f1061193957610100808354040283529160200191611964565b820191906000526020600020905b81548152906001019060200180831161194757829003601f168201915b505050505090806001018054611979906121ec565b80601f01602080910402602001604051908101604052809291908181526020018280546119a5906121ec565b80156119f25780601f106119c7576101008083540402835291602001916119f2565b820191906000526020600020905b8154815290600101906020018083116119d557829003601f168201915b505050505090806002018054611a07906121ec565b80601f0160208091040260200160405190810160405280929190818152602001828054611a33906121ec565b8015611a805780601f10611a5557610100808354040283529160200191611a80565b820191906000526020600020905b815481529060010190602001808311611a6357829003601f168201915b505050600390930154919250506001600160a01b0381169063ffffffff600160a01b8204811691600160c01b90041686565b63ffffffff8116600090815260046020908152604091829020805483518184028101840190945280845260609392830182828015611b3b57602002820191906000526020600020906000905b82829054906101000a900463ffffffff1663ffffffff1681526020019060040190602082600301049283019260010382029150808411611afe5790505b50505050509050919050565b600080548190640100000000900463ffffffff16816004611b6783612227565b82546101009290920a63ffffffff818102199093169183160217909155811660009081526002602090815260409091208851929350611baa929091890190611c2b565b5063ffffffff811660009081526002602090815260409091208651611bd792600190920191880190611c2b565b5063ffffffff811660009081526002602081815260409092206003810180546001600160a01b0319166001600160a01b0389161790558551611c2193919092019190860190611c2b565b5095945050505050565b828054611c37906121ec565b90600052602060002090601f016020900481019282611c595760008555611c9f565b82601f10611c7257805160ff1916838001178555611c9f565b82800160010185558215611c9f579182015b82811115611c9f578251825591602001919060010190611c84565b50611cab929150611caf565b5090565b5b80821115611cab5760008155600101611cb0565b803563ffffffff81168114611cd857600080fd5b919050565b60008060408385031215611cf057600080fd5b611cf983611cc4565b946020939093013593505050565b600080600060608486031215611d1c57600080fd5b611d2584611cc4565b9250611d3360208501611cc4565b9150611d4160408501611cc4565b90509250925092565b600060208284031215611d5c57600080fd5b611d6582611cc4565b9392505050565b60005b83811015611d87578181015183820152602001611d6f565b83811115611d96576000848401525b50505050565b60008151808452611db4816020860160208601611d6c565b601f01601f19169290920160200192915050565b606081526000611ddb6060830186611d9c565b6001600160a01b03851660208401528281036040840152611dfc8185611d9c565b9695505050505050565b634e487b7160e01b600052604160045260246000fd5b600082601f830112611e2d57600080fd5b813567ffffffffffffffff80821115611e4857611e48611e06565b604051601f8301601f19908116603f01168101908282118183101715611e7057611e70611e06565b81604052838152866020858801011115611e8957600080fd5b836020870160208301376000602085830101528094505050505092915050565b600080600080600060a08688031215611ec157600080fd5b611eca86611cc4565b9450602086013567ffffffffffffffff80821115611ee757600080fd5b611ef389838a01611e1c565b95506040880135915080821115611f0957600080fd5b611f1589838a01611e1c565b94506060880135915080821115611f2b57600080fd5b50611f3888828901611e1c565b925050611f4760808701611cc4565b90509295509295909350565b60008060008060808587031215611f6957600080fd5b611f7285611cc4565b9350602085013567ffffffffffffffff80821115611f8f57600080fd5b611f9b88838901611e1c565b94506040870135915080821115611fb157600080fd5b611fbd88838901611e1c565b93506060870135915080821115611fd357600080fd5b50611fe087828801611e1c565b91505092959194509250565b608081526000611fff6080830187611d9c565b82810360208401526120118187611d9c565b905082810360408401526120258186611d9c565b91505060018060a01b038316606083015295945050505050565b60c08152600061205260c0830189611d9c565b82810360208401526120648189611d9c565b905082810360408401526120788188611d9c565b63ffffffff96871660608501526001600160a01b039590951660808401525050921660a0909201919091529392505050565b60c0815260006120bd60c0830189611d9c565b82810360208401526120cf8189611d9c565b905082810360408401526120e38188611d9c565b6001600160a01b03969096166060840152505063ffffffff9283166080820152911660a0909101529392505050565b6020808252825182820181905260009190848201906040850190845b8181101561215057835163ffffffff168352928401929184019160010161212e565b50909695505050505050565b6000806000806080858703121561217257600080fd5b843567ffffffffffffffff8082111561218a57600080fd5b61219688838901611e1c565b955060208701359150808211156121ac57600080fd5b6121b888838901611e1c565b9450604087013591506001600160a01b03821682146121d657600080fd5b90925060608601359080821115611fd357600080fd5b600181811c9082168061220057607f821691505b6020821081141561222157634e487b7160e01b600052602260045260246000fd5b50919050565b600063ffffffff8083168181141561224f57634e487b7160e01b600052601160045260246000fd5b6001019392505050565b6000825161226b818460208701611d6c565b9190910192915050565b600080835481600182811c91508083168061229157607f831692505b60208084108214156122b157634e487b7160e01b86526022600452602486fd5b8180156122c557600181146122d657612303565b60ff19861689528489019650612303565b60008a81526020902060005b868110156122fb5781548b8201529085019083016122e2565b505084890196505b50949897505050505050505056feb77c7d6bf62fa24fc205955093030c58325cd2d3d35fb486ede7594fb99635f5a2646970667358221220631403d2cb8d62ba6138afb46388996b1b17ee6fa6afa2a89d01e88dcfb2b86264736f6c63430008090033",
    "sourcePath": "/Users/henaowe/repos/SupplyChainApp/contracts/SupplyChain.sol",
    "compiler": {
        "name": "solc",
        "version": "0.8.9+commit.e5eed63a"
    },
    "functionHashes": {
        "addParticipant(string,string,address,string)": "ebf43a7e",
        "addProduct(uint32,string,string,string,uint32)": "50632104",
        "authenticateParticipant(uint32,string,string,string)": "721b5743",
        "getOwnership(uint32)": "df6d23f1",
        "getParticipant(uint32)": "3b26a65d",
        "getProduct(uint32)": "a638ac49",
        "getProvenance(uint32)": "c8569565",
        "newOwner(uint32,uint32,uint32)": "2e9d5284",
        "owner_id()": "8f5ebf71",
        "ownerships(uint32)": "81e15610",
        "participant_id()": "fc2da910",
        "participants(uint32)": "7d0a9ac9",
        "productTrack(uint32,uint256)": "1a074802",
        "product_id()": "eab0a479",
        "products(uint32)": "bf712fd6"
    },
    "gasEstimates": {
        "creation": {
            "codeDepositCost": "1812600",
            "executionCost": "26142",
            "totalCost": "1838742"
        },
        "external": {
            "addParticipant(string,string,address,string)": "infinite",
            "addProduct(uint32,string,string,string,uint32)": "infinite",
            "authenticateParticipant(uint32,string,string,string)": "infinite",
            "getOwnership(uint32)": "2867",
            "getParticipant(uint32)": "infinite",
            "getProduct(uint32)": "infinite",
            "getProvenance(uint32)": "infinite",
            "newOwner(uint32,uint32,uint32)": "infinite",
            "owner_id()": "2342",
            "ownerships(uint32)": "2791",
            "participant_id()": "2401",
            "participants(uint32)": "infinite",
            "productTrack(uint32,uint256)": "6421",
            "product_id()": "2346",
            "products(uint32)": "infinite"
        }
    }
}